{
  "contractName": "CatCollectionToken",
  "abi": [
    {
      "inputs": [],
      "payable": false,
      "stateMutability": "nonpayable",
      "type": "constructor"
    },
    {
      "anonymous": false,
      "inputs": [
        {
          "indexed": false,
          "internalType": "string",
          "name": "id",
          "type": "string"
        },
        {
          "indexed": false,
          "internalType": "string",
          "name": "imgUrl",
          "type": "string"
        },
        {
          "indexed": false,
          "internalType": "string",
          "name": "description",
          "type": "string"
        },
        {
          "indexed": false,
          "internalType": "string",
          "name": "catName",
          "type": "string"
        },
        {
          "indexed": false,
          "internalType": "uint256",
          "name": "tipAmount",
          "type": "uint256"
        },
        {
          "indexed": false,
          "internalType": "address payable",
          "name": "owner",
          "type": "address"
        }
      ],
      "name": "CatIssued",
      "type": "event"
    },
    {
      "anonymous": false,
      "inputs": [
        {
          "indexed": false,
          "internalType": "string",
          "name": "id",
          "type": "string"
        },
        {
          "indexed": false,
          "internalType": "uint256",
          "name": "tipAmount",
          "type": "uint256"
        },
        {
          "indexed": false,
          "internalType": "address payable",
          "name": "owner",
          "type": "address"
        }
      ],
      "name": "CatTipped",
      "type": "event"
    },
    {
      "constant": true,
      "inputs": [
        {
          "internalType": "string",
          "name": "",
          "type": "string"
        }
      ],
      "name": "catCollection",
      "outputs": [
        {
          "internalType": "string",
          "name": "id",
          "type": "string"
        },
        {
          "internalType": "string",
          "name": "imgUrl",
          "type": "string"
        },
        {
          "internalType": "string",
          "name": "description",
          "type": "string"
        },
        {
          "internalType": "string",
          "name": "catName",
          "type": "string"
        },
        {
          "internalType": "uint256",
          "name": "tipAmount",
          "type": "uint256"
        },
        {
          "internalType": "address payable",
          "name": "owner",
          "type": "address"
        }
      ],
      "payable": false,
      "stateMutability": "view",
      "type": "function"
    },
    {
      "constant": true,
      "inputs": [
        {
          "internalType": "address",
          "name": "",
          "type": "address"
        },
        {
          "internalType": "uint256",
          "name": "",
          "type": "uint256"
        }
      ],
      "name": "catCollectionByOwner",
      "outputs": [
        {
          "internalType": "string",
          "name": "id",
          "type": "string"
        },
        {
          "internalType": "string",
          "name": "imgUrl",
          "type": "string"
        },
        {
          "internalType": "string",
          "name": "description",
          "type": "string"
        },
        {
          "internalType": "string",
          "name": "catName",
          "type": "string"
        },
        {
          "internalType": "uint256",
          "name": "tipAmount",
          "type": "uint256"
        },
        {
          "internalType": "address payable",
          "name": "owner",
          "type": "address"
        }
      ],
      "payable": false,
      "stateMutability": "view",
      "type": "function"
    },
    {
      "constant": true,
      "inputs": [],
      "name": "issuedCat",
      "outputs": [
        {
          "internalType": "uint256",
          "name": "",
          "type": "uint256"
        }
      ],
      "payable": false,
      "stateMutability": "view",
      "type": "function"
    },
    {
      "constant": true,
      "inputs": [],
      "name": "name",
      "outputs": [
        {
          "internalType": "string",
          "name": "",
          "type": "string"
        }
      ],
      "payable": false,
      "stateMutability": "view",
      "type": "function"
    },
    {
      "constant": false,
      "inputs": [
        {
          "internalType": "string",
          "name": "id",
          "type": "string"
        },
        {
          "internalType": "string",
          "name": "imgUrl",
          "type": "string"
        },
        {
          "internalType": "string",
          "name": "description",
          "type": "string"
        },
        {
          "internalType": "string",
          "name": "catName",
          "type": "string"
        }
      ],
      "name": "createCat",
      "outputs": [],
      "payable": false,
      "stateMutability": "nonpayable",
      "type": "function"
    },
    {
      "constant": true,
      "inputs": [
        {
          "internalType": "address",
          "name": "_owner",
          "type": "address"
        }
      ],
      "name": "getCollectionByOwner",
      "outputs": [
        {
          "components": [
            {
              "internalType": "string",
              "name": "id",
              "type": "string"
            },
            {
              "internalType": "string",
              "name": "imgUrl",
              "type": "string"
            },
            {
              "internalType": "string",
              "name": "description",
              "type": "string"
            },
            {
              "internalType": "string",
              "name": "catName",
              "type": "string"
            },
            {
              "internalType": "uint256",
              "name": "tipAmount",
              "type": "uint256"
            },
            {
              "internalType": "address payable",
              "name": "owner",
              "type": "address"
            }
          ],
          "internalType": "struct CatCollectionToken.CatCollection[]",
          "name": "",
          "type": "tuple[]"
        }
      ],
      "payable": false,
      "stateMutability": "view",
      "type": "function"
    },
    {
      "constant": false,
      "inputs": [
        {
          "internalType": "string",
          "name": "_id",
          "type": "string"
        }
      ],
      "name": "tipCat",
      "outputs": [],
      "payable": true,
      "stateMutability": "payable",
      "type": "function"
    }
  ],
  "bytecode": "0x608060405260006001553480156200001657600080fd5b506040518060400160405280601481526020017f47616368612043617420436f6c6c656374696f6e00000000000000000000000081525060009080519060200190620000649291906200006b565b506200011a565b828054600181600116156101000203166002900490600052602060002090601f016020900481019282601f10620000ae57805160ff1916838001178555620000df565b82800160010185558215620000df579182015b82811115620000de578251825591602001919060010190620000c1565b5b509050620000ee9190620000f2565b5090565b6200011791905b8082111562000113576000816000905550600101620000f9565b5090565b90565b611dfe806200012a6000396000f3fe6080604052600436106100705760003560e01c806335dde2f61161004e57806335dde2f61461011f578063593503be14610148578063aee7686f1461018a578063be27fdcb146101a657610070565b806306fdde03146100755780630b1f4849146100a0578063245cf3ec146100e2575b600080fd5b34801561008157600080fd5b5061008a6101d1565b6040516100979190611a64565b60405180910390f35b3480156100ac57600080fd5b506100c760048036036100c2919081019061165c565b61026f565b6040516100d996959493929190611b41565b60405180910390f35b3480156100ee57600080fd5b5061010960048036036101049190810190611633565b610545565b6040516101169190611a42565b60405180910390f35b34801561012b57600080fd5b506101466004803603610141919081019061171a565b610990565b005b34801561015457600080fd5b5061016f600480360361016a9190810190611698565b610c98565b60405161018196959493929190611b41565b60405180910390f35b6101a4600480360361019f91908101906116d9565b610f6a565b005b3480156101b257600080fd5b506101bb61141e565b6040516101c89190611bbe565b60405180910390f35b60008054600181600116156101000203166002900480601f0160208091040260200160405190810160405280929190818152602001828054600181600116156101000203166002900480156102675780601f1061023c57610100808354040283529160200191610267565b820191906000526020600020905b81548152906001019060200180831161024a57829003601f168201915b505050505081565b6003602052816000526040600020818154811061028857fe5b906000526020600020906006020160009150915050806000018054600181600116156101000203166002900480601f0160208091040260200160405190810160405280929190818152602001828054600181600116156101000203166002900480156103355780601f1061030a57610100808354040283529160200191610335565b820191906000526020600020905b81548152906001019060200180831161031857829003601f168201915b505050505090806001018054600181600116156101000203166002900480601f0160208091040260200160405190810160405280929190818152602001828054600181600116156101000203166002900480156103d35780601f106103a8576101008083540402835291602001916103d3565b820191906000526020600020905b8154815290600101906020018083116103b657829003601f168201915b505050505090806002018054600181600116156101000203166002900480601f0160208091040260200160405190810160405280929190818152602001828054600181600116156101000203166002900480156104715780601f1061044657610100808354040283529160200191610471565b820191906000526020600020905b81548152906001019060200180831161045457829003601f168201915b505050505090806003018054600181600116156101000203166002900480601f01602080910402602001604051908101604052809291908181526020018280546001816001161561010002031660029004801561050f5780601f106104e45761010080835404028352916020019161050f565b820191906000526020600020905b8154815290600101906020018083116104f257829003601f168201915b5050505050908060040154908060050160009054906101000a900473ffffffffffffffffffffffffffffffffffffffff16905086565b606080600360008473ffffffffffffffffffffffffffffffffffffffff1673ffffffffffffffffffffffffffffffffffffffff168152602001908152602001600020805490506040519080825280602002602001820160405280156105c457816020015b6105b1611424565b8152602001906001900390816105a95790505b50905060008090505b600360008573ffffffffffffffffffffffffffffffffffffffff1673ffffffffffffffffffffffffffffffffffffffff1681526020019081526020016000208054905081101561098657600360008573ffffffffffffffffffffffffffffffffffffffff1673ffffffffffffffffffffffffffffffffffffffff168152602001908152602001600020818154811061066157fe5b90600052602060002090600602016040518060c0016040529081600082018054600181600116156101000203166002900480601f0160208091040260200160405190810160405280929190818152602001828054600181600116156101000203166002900480156107135780601f106106e857610100808354040283529160200191610713565b820191906000526020600020905b8154815290600101906020018083116106f657829003601f168201915b50505050508152602001600182018054600181600116156101000203166002900480601f0160208091040260200160405190810160405280929190818152602001828054600181600116156101000203166002900480156107b55780601f1061078a576101008083540402835291602001916107b5565b820191906000526020600020905b81548152906001019060200180831161079857829003601f168201915b50505050508152602001600282018054600181600116156101000203166002900480601f0160208091040260200160405190810160405280929190818152602001828054600181600116156101000203166002900480156108575780601f1061082c57610100808354040283529160200191610857565b820191906000526020600020905b81548152906001019060200180831161083a57829003601f168201915b50505050508152602001600382018054600181600116156101000203166002900480601f0160208091040260200160405190810160405280929190818152602001828054600181600116156101000203166002900480156108f95780601f106108ce576101008083540402835291602001916108f9565b820191906000526020600020905b8154815290600101906020018083116108dc57829003601f168201915b50505050508152602001600482015481526020016005820160009054906101000a900473ffffffffffffffffffffffffffffffffffffffff1673ffffffffffffffffffffffffffffffffffffffff1673ffffffffffffffffffffffffffffffffffffffff168152505082828151811061096e57fe5b602002602001018190525080806001019150506105cd565b5080915050919050565b600084511161099e57600080fd5b6001600081548092919060010191905055506040518060c00160405280858152602001848152602001838152602001828152602001600081526020013373ffffffffffffffffffffffffffffffffffffffff16815250600285604051610a049190611a2b565b90815260200160405180910390206000820151816000019080519060200190610a2e929190611470565b506020820151816001019080519060200190610a4b929190611470565b506040820151816002019080519060200190610a68929190611470565b506060820151816003019080519060200190610a85929190611470565b506080820151816004015560a08201518160050160006101000a81548173ffffffffffffffffffffffffffffffffffffffff021916908373ffffffffffffffffffffffffffffffffffffffff160217905550905050600360003373ffffffffffffffffffffffffffffffffffffffff1673ffffffffffffffffffffffffffffffffffffffff1681526020019081526020016000206040518060c00160405280868152602001858152602001848152602001838152602001600081526020013373ffffffffffffffffffffffffffffffffffffffff16815250908060018154018082558091505090600182039060005260206000209060060201600090919290919091506000820151816000019080519060200190610ba4929190611470565b506020820151816001019080519060200190610bc1929190611470565b506040820151816002019080519060200190610bde929190611470565b506060820151816003019080519060200190610bfb929190611470565b506080820151816004015560a08201518160050160006101000a81548173ffffffffffffffffffffffffffffffffffffffff021916908373ffffffffffffffffffffffffffffffffffffffff1602179055505050507f98c46399b5e63ddbe72b618f225b485514ebb26a6a73419b1792e9dcd486aa4a84848484600033604051610c8a96959493929190611a86565b60405180910390a150505050565b600281805160208101820180518482526020830160208501208183528095505050505050600091509050806000018054600181600116156101000203166002900480601f016020809104026020016040519081016040528092919081815260200182805460018160011615610100020316600290048015610d5a5780601f10610d2f57610100808354040283529160200191610d5a565b820191906000526020600020905b815481529060010190602001808311610d3d57829003601f168201915b505050505090806001018054600181600116156101000203166002900480601f016020809104026020016040519081016040528092919081815260200182805460018160011615610100020316600290048015610df85780601f10610dcd57610100808354040283529160200191610df8565b820191906000526020600020905b815481529060010190602001808311610ddb57829003601f168201915b505050505090806002018054600181600116156101000203166002900480601f016020809104026020016040519081016040528092919081815260200182805460018160011615610100020316600290048015610e965780601f10610e6b57610100808354040283529160200191610e96565b820191906000526020600020905b815481529060010190602001808311610e7957829003601f168201915b505050505090806003018054600181600116156101000203166002900480601f016020809104026020016040519081016040528092919081815260200182805460018160011615610100020316600290048015610f345780601f10610f0957610100808354040283529160200191610f34565b820191906000526020600020905b815481529060010190602001808311610f1757829003601f168201915b5050505050908060040154908060050160009054906101000a900473ffffffffffffffffffffffffffffffffffffffff16905086565b6000815111610f7857600080fd5b610f806114f0565b600282604051610f909190611a2b565b90815260200160405180910390206040518060c0016040529081600082018054600181600116156101000203166002900480601f0160208091040260200160405190810160405280929190818152602001828054600181600116156101000203166002900480156110425780601f1061101757610100808354040283529160200191611042565b820191906000526020600020905b81548152906001019060200180831161102557829003601f168201915b50505050508152602001600182018054600181600116156101000203166002900480601f0160208091040260200160405190810160405280929190818152602001828054600181600116156101000203166002900480156110e45780601f106110b9576101008083540402835291602001916110e4565b820191906000526020600020905b8154815290600101906020018083116110c757829003601f168201915b50505050508152602001600282018054600181600116156101000203166002900480601f0160208091040260200160405190810160405280929190818152602001828054600181600116156101000203166002900480156111865780601f1061115b57610100808354040283529160200191611186565b820191906000526020600020905b81548152906001019060200180831161116957829003601f168201915b50505050508152602001600382018054600181600116156101000203166002900480601f0160208091040260200160405190810160405280929190818152602001828054600181600116156101000203166002900480156112285780601f106111fd57610100808354040283529160200191611228565b820191906000526020600020905b81548152906001019060200180831161120b57829003601f168201915b50505050508152602001600482015481526020016005820160009054906101000a900473ffffffffffffffffffffffffffffffffffffffff1673ffffffffffffffffffffffffffffffffffffffff1673ffffffffffffffffffffffffffffffffffffffff1681525050905060008160a0015190508073ffffffffffffffffffffffffffffffffffffffff166108fc349081150290604051600060405180830381858888f193505050501580156112e2573d6000803e3d6000fd5b5034826080015101826080018181525050816002846040516113049190611a2b565b9081526020016040518091039020600082015181600001908051906020019061132e929190611470565b50602082015181600101908051906020019061134b929190611470565b506040820151816002019080519060200190611368929190611470565b506060820151816003019080519060200190611385929190611470565b506080820151816004015560a08201518160050160006101000a81548173ffffffffffffffffffffffffffffffffffffffff021916908373ffffffffffffffffffffffffffffffffffffffff1602179055509050507f9855bb77771260770fab48e534d29c1dad59b63ae5171b338219335763fcf5298383608001518360405161141193929190611b03565b60405180910390a1505050565b60015481565b6040518060c001604052806060815260200160608152602001606081526020016060815260200160008152602001600073ffffffffffffffffffffffffffffffffffffffff1681525090565b828054600181600116156101000203166002900490600052602060002090601f016020900481019282601f106114b157805160ff19168380011785556114df565b828001600101855582156114df579182015b828111156114de5782518255916020019190600101906114c3565b5b5090506114ec919061153c565b5090565b6040518060c001604052806060815260200160608152602001606081526020016060815260200160008152602001600073ffffffffffffffffffffffffffffffffffffffff1681525090565b61155e91905b8082111561155a576000816000905550600101611542565b5090565b90565b60008135905061157081611d8d565b92915050565b600082601f83011261158757600080fd5b813561159a61159582611c06565b611bd9565b915080825260208301602083018583830111156115b657600080fd5b6115c1838284611d3a565b50505092915050565b600082601f8301126115db57600080fd5b81356115ee6115e982611c32565b611bd9565b9150808252602083016020830185838301111561160a57600080fd5b611615838284611d3a565b50505092915050565b60008135905061162d81611da4565b92915050565b60006020828403121561164557600080fd5b600061165384828501611561565b91505092915050565b6000806040838503121561166f57600080fd5b600061167d85828601611561565b925050602061168e8582860161161e565b9150509250929050565b6000602082840312156116aa57600080fd5b600082013567ffffffffffffffff8111156116c457600080fd5b6116d084828501611576565b91505092915050565b6000602082840312156116eb57600080fd5b600082013567ffffffffffffffff81111561170557600080fd5b611711848285016115ca565b91505092915050565b6000806000806080858703121561173057600080fd5b600085013567ffffffffffffffff81111561174a57600080fd5b611756878288016115ca565b945050602085013567ffffffffffffffff81111561177357600080fd5b61177f878288016115ca565b935050604085013567ffffffffffffffff81111561179c57600080fd5b6117a8878288016115ca565b925050606085013567ffffffffffffffff8111156117c557600080fd5b6117d1878288016115ca565b91505092959194509250565b60006117e9838361196f565b905092915050565b6117fa81611cec565b82525050565b61180981611cec565b82525050565b600061181a82611c6e565b6118248185611c9c565b93508360208202850161183685611c5e565b8060005b85811015611872578484038952815161185385826117dd565b945061185e83611c8f565b925060208a0199505060018101905061183a565b50829750879550505050505092915050565b61188d81611d28565b82525050565b600061189e82611c84565b6118a88185611cbe565b93506118b8818560208601611d49565b6118c181611d7c565b840191505092915050565b60006118d782611c84565b6118e18185611ccf565b93506118f1818560208601611d49565b80840191505092915050565b600061190882611c79565b6119128185611cad565b9350611922818560208601611d49565b61192b81611d7c565b840191505092915050565b600061194182611c79565b61194b8185611cbe565b935061195b818560208601611d49565b61196481611d7c565b840191505092915050565b600060c083016000830151848203600086015261198c82826118fd565b915050602083015184820360208601526119a682826118fd565b915050604083015184820360408601526119c082826118fd565b915050606083015184820360608601526119da82826118fd565b91505060808301516119ef6080860182611a0d565b5060a0830151611a0260a08601826117f1565b508091505092915050565b611a1681611d1e565b82525050565b611a2581611d1e565b82525050565b6000611a3782846118cc565b915081905092915050565b60006020820190508181036000830152611a5c818461180f565b905092915050565b60006020820190508181036000830152611a7e8184611936565b905092915050565b600060c0820190508181036000830152611aa08189611893565b90508181036020830152611ab48188611893565b90508181036040830152611ac88187611893565b90508181036060830152611adc8186611893565b9050611aeb6080830185611884565b611af860a0830184611800565b979650505050505050565b60006060820190508181036000830152611b1d8186611893565b9050611b2c6020830185611a1c565b611b396040830184611800565b949350505050565b600060c0820190508181036000830152611b5b8189611936565b90508181036020830152611b6f8188611936565b90508181036040830152611b838187611936565b90508181036060830152611b978186611936565b9050611ba66080830185611a1c565b611bb360a0830184611800565b979650505050505050565b6000602082019050611bd36000830184611a1c565b92915050565b6000604051905081810181811067ffffffffffffffff82111715611bfc57600080fd5b8060405250919050565b600067ffffffffffffffff821115611c1d57600080fd5b601f19601f8301169050602081019050919050565b600067ffffffffffffffff821115611c4957600080fd5b601f19601f8301169050602081019050919050565b6000819050602082019050919050565b600081519050919050565b600081519050919050565b600081519050919050565b6000602082019050919050565b600082825260208201905092915050565b600082825260208201905092915050565b600082825260208201905092915050565b600081905092915050565b6000611ce582611cfe565b9050919050565b6000611cf782611cfe565b9050919050565b600073ffffffffffffffffffffffffffffffffffffffff82169050919050565b6000819050919050565b6000611d3382611d1e565b9050919050565b82818337600083830152505050565b60005b83811015611d67578082015181840152602081019050611d4c565b83811115611d76576000848401525b50505050565b6000601f19601f8301169050919050565b611d9681611cda565b8114611da157600080fd5b50565b611dad81611d1e565b8114611db857600080fd5b5056fea365627a7a723158203a25ca4351bc9a1a27a1b2a43a31b032dab37dd963c9ac4aea105191c0b8c2cc6c6578706572696d656e74616cf564736f6c63430005100040",
  "source": "pragma solidity ^0.5.0;\npragma experimental ABIEncoderV2;\n\ncontract CatCollectionToken {\n    string public name;\n    uint public issuedCat = 0;\n    // address[] public collectionOwner;\n\n    // mapping(address => CatCollection) public catCollection;\n    mapping(string => CatCollection) public catCollection;\n    mapping(address => CatCollection[]) public catCollectionByOwner;\n\n    struct CatCollection {\n        string id;\n        string imgUrl;\n        string description;\n        string catName;\n        uint tipAmount;\n        // CatStatus status;\n        address payable owner;\n    }\n\n    // struct CatStatus {\n    //   uint adaptability;\n    //   uint affectionLevel;\n    //   uint rarity;\n    //   uint socialNeeds;\n    //   uint stangerFriendly;\n    // }\n\n    event CatIssued(\n        string id,\n        string imgUrl,\n        string description,\n        string catName,\n        uint tipAmount,\n        // CatStatus status,\n        address payable owner\n    );\n\n    event CatTipped(\n        string id,\n        uint tipAmount,\n        address payable owner\n    );\n\n    constructor() public {\n        name = \"Gacha Cat Collection\";\n    }\n\n    function createCat(string memory id, string memory imgUrl, string memory description, string memory catName) public {\n        // Require valid content\n        require(bytes(id).length > 0);\n        // Increment the post count\n        issuedCat ++;\n        // Create the post\n        catCollection[id] = CatCollection(id, imgUrl, description, catName, 0, msg.sender);\n        catCollectionByOwner[msg.sender].push(CatCollection(id, imgUrl, description, catName, 0, msg.sender));\n        // collectionOwner[msg.sender].push(catCollection[id]);\n        // Trigger event\n        emit CatIssued(id, imgUrl, description, catName, 0, msg.sender);\n    }\n\n    function getCollectionByOwner(address _owner) public view returns(CatCollection[] memory){\n      CatCollection[] memory temp = new CatCollection[](catCollectionByOwner[_owner].length);\n      for (uint i = 0; i<catCollectionByOwner[_owner].length; i++) {\n        // return catCollectionByOwner[_owner][i]; \n        temp[i] = catCollectionByOwner[_owner][i]; \n      }\n\n      return (temp);\n    }\n\n    function tipCat(string memory _id) public payable {\n        // Make sure the id is valid\n        require(bytes(_id).length > 0);\n        // Fetch the post\n        CatCollection memory _catCollection = catCollection[_id];\n        // Fetch the author\n        address payable _owner = _catCollection.owner;\n        // Pay the author by sending them Ether\n        address(_owner).transfer(msg.value);\n        // Incremet the tip amount\n        _catCollection.tipAmount = _catCollection.tipAmount + msg.value;\n        // Update the post\n        catCollection[_id] = _catCollection;\n        // Trigger an event\n        emit CatTipped(_id, _catCollection.tipAmount, _owner);\n    }\n}",
  "sourcePath": "/Users/ryanrynaldo/personalProject/gachacat-blockchain/src/contracts/CatCollectionToken.sol",
  "compiler": {
    "name": "solc",
    "version": "0.5.16+commit.9c3226ce.Emscripten.clang"
  },
  "schemaVersion": "3.4.1",
  "updatedAt": "2021-07-20T15:41:17.631Z",
  "networkType": "ethereum",
  "devdoc": {
    "methods": {}
  },
  "userdoc": {
    "methods": {}
  }
}